{
  "_format": "hh-sol-artifact-1",
  "contractName": "MyWallet",
  "sourceName": "contracts/MyWallet.sol",
  "abi": [
    {
      "inputs": [],
      "stateMutability": "nonpayable",
      "type": "constructor"
    },
    {
      "inputs": [],
      "name": "getBalance",
      "outputs": [
        {
          "internalType": "uint256",
          "name": "",
          "type": "uint256"
        }
      ],
      "stateMutability": "view",
      "type": "function"
    },
    {
      "inputs": [],
      "name": "owner",
      "outputs": [
        {
          "internalType": "address",
          "name": "",
          "type": "address"
        }
      ],
      "stateMutability": "view",
      "type": "function"
    },
    {
      "inputs": [
        {
          "internalType": "address payable",
          "name": "_to",
          "type": "address"
        },
        {
          "internalType": "uint256",
          "name": "_amount",
          "type": "uint256"
        }
      ],
      "name": "sendETH",
      "outputs": [],
      "stateMutability": "nonpayable",
      "type": "function"
    },
    {
      "stateMutability": "payable",
      "type": "receive"
    }
  ],
  "bytecode": "0x6080604052348015600f57600080fd5b50336000806101000a81548173ffffffffffffffffffffffffffffffffffffffff021916908373ffffffffffffffffffffffffffffffffffffffff1602179055506103ba8061005f6000396000f3fe6080604052600436106100385760003560e01c806312065fe01461004457806364a197f31461006f5780638da5cb5b146100985761003f565b3661003f57005b600080fd5b34801561005057600080fd5b506100596100c3565b60405161006691906101e1565b60405180910390f35b34801561007b57600080fd5b506100966004803603810190610091919061028b565b6100cb565b005b3480156100a457600080fd5b506100ad6101a4565b6040516100ba91906102ec565b60405180910390f35b600047905090565b60008054906101000a900473ffffffffffffffffffffffffffffffffffffffff1673ffffffffffffffffffffffffffffffffffffffff163373ffffffffffffffffffffffffffffffffffffffff1614610159576040517f08c379a000000000000000000000000000000000000000000000000000000000815260040161015090610364565b60405180910390fd5b8173ffffffffffffffffffffffffffffffffffffffff166108fc829081150290604051600060405180830381858888f1935050505015801561019f573d6000803e3d6000fd5b505050565b60008054906101000a900473ffffffffffffffffffffffffffffffffffffffff1681565b6000819050919050565b6101db816101c8565b82525050565b60006020820190506101f660008301846101d2565b92915050565b600080fd5b600073ffffffffffffffffffffffffffffffffffffffff82169050919050565b600061022c82610201565b9050919050565b61023c81610221565b811461024757600080fd5b50565b60008135905061025981610233565b92915050565b610268816101c8565b811461027357600080fd5b50565b6000813590506102858161025f565b92915050565b600080604083850312156102a2576102a16101fc565b5b60006102b08582860161024a565b92505060206102c185828601610276565b9150509250929050565b60006102d682610201565b9050919050565b6102e6816102cb565b82525050565b600060208201905061030160008301846102dd565b92915050565b600082825260208201905092915050565b7f4f6e6c79206f776e657200000000000000000000000000000000000000000000600082015250565b600061034e600a83610307565b915061035982610318565b602082019050919050565b6000602082019050818103600083015261037d81610341565b905091905056fea2646970667358221220b0bb5e811c31cf31518acbb7379096f3ab40c31edd3265da2e4db9046b3fb77a64736f6c634300081c0033",
  "linkReferences": {},
  "deployedLinkReferences": {}
}